{
  "contractName": "AaveFlashloan",
  "abi": [
    {
      "inputs": [
        {
          "internalType": "contract IPoolAddressesProvider",
          "name": "provider",
          "type": "address"
        }
      ],
      "stateMutability": "nonpayable",
      "type": "constructor"
    },
    {
      "anonymous": false,
      "inputs": [
        {
          "indexed": false,
          "internalType": "string",
          "name": "message",
          "type": "string"
        },
        {
          "indexed": false,
          "internalType": "uint256",
          "name": "val",
          "type": "uint256"
        }
      ],
      "name": "Log",
      "type": "event"
    },
    {
      "inputs": [],
      "name": "ADDRESSES_PROVIDER",
      "outputs": [
        {
          "internalType": "contract IPoolAddressesProvider",
          "name": "",
          "type": "address"
        }
      ],
      "stateMutability": "view",
      "type": "function"
    },
    {
      "inputs": [],
      "name": "POOL",
      "outputs": [
        {
          "internalType": "contract IPool",
          "name": "",
          "type": "address"
        }
      ],
      "stateMutability": "view",
      "type": "function"
    },
    {
      "inputs": [
        {
          "internalType": "address",
          "name": "loanToken",
          "type": "address"
        },
        {
          "internalType": "uint256",
          "name": "loanAmount",
          "type": "uint256"
        }
      ],
      "name": "aaveFlashloan",
      "outputs": [],
      "stateMutability": "nonpayable",
      "type": "function"
    },
    {
      "inputs": [
        {
          "internalType": "address",
          "name": "asset",
          "type": "address"
        },
        {
          "internalType": "uint256",
          "name": "amount",
          "type": "uint256"
        },
        {
          "internalType": "uint256",
          "name": "premium",
          "type": "uint256"
        },
        {
          "internalType": "address",
          "name": "",
          "type": "address"
        },
        {
          "internalType": "bytes",
          "name": "",
          "type": "bytes"
        }
      ],
      "name": "executeOperation",
      "outputs": [
        {
          "internalType": "bool",
          "name": "",
          "type": "bool"
        }
      ],
      "stateMutability": "nonpayable",
      "type": "function"
    }
  ],
  "bytecode": "0x60c06040523480156200001157600080fd5b506040516200108738038062001087833981810160405281019062000037919062000197565b808073ffffffffffffffffffffffffffffffffffffffff1660808173ffffffffffffffffffffffffffffffffffffffff16815250508073ffffffffffffffffffffffffffffffffffffffff1663026b1d5f6040518163ffffffff1660e01b8152600401602060405180830381865afa158015620000b8573d6000803e3d6000fd5b505050506040513d601f19601f82011682018060405250810190620000de9190620001fa565b73ffffffffffffffffffffffffffffffffffffffff1660a08173ffffffffffffffffffffffffffffffffffffffff168152505050506200022c565b600080fd5b600073ffffffffffffffffffffffffffffffffffffffff82169050919050565b60006200014b826200011e565b9050919050565b60006200015f826200013e565b9050919050565b620001718162000152565b81146200017d57600080fd5b50565b600081519050620001918162000166565b92915050565b600060208284031215620001b057620001af62000119565b5b6000620001c08482850162000180565b91505092915050565b620001d4816200013e565b8114620001e057600080fd5b50565b600081519050620001f481620001c9565b92915050565b60006020828403121562000213576200021262000119565b5b60006200022384828501620001e3565b91505092915050565b60805160a051610e286200025f600039600081816102940152818161036e01526103920152600060db0152610e286000f3fe608060405234801561001057600080fd5b506004361061004c5760003560e01c80630542975c146100515780631b11d0ff1461006f5780637535d2461461009f578063ff7957ca146100bd575b600080fd5b6100596100d9565b604051610066919061057d565b60405180910390f35b61008960048036038101906100849190610766565b6100fd565b6040516100969190610818565b60405180910390f35b6100a761036c565b6040516100b49190610854565b60405180910390f35b6100d760048036038101906100d2919061086f565b610390565b005b7f000000000000000000000000000000000000000000000000000000000000000081565b60008573ffffffffffffffffffffffffffffffffffffffff166370a08231306040518263ffffffff1660e01b815260040161013891906108be565b602060405180830381865afa158015610155573d6000803e3d6000fd5b505050506040513d601f19601f8201168201806040525081019061017991906108ee565b8511156101bb576040517f08c379a00000000000000000000000000000000000000000000000000000000081526004016101b290610978565b60405180910390fd5b60006101d0858761042690919063ffffffff16565b9050808773ffffffffffffffffffffffffffffffffffffffff166370a08231306040518263ffffffff1660e01b815260040161020c91906108be565b602060405180830381865afa158015610229573d6000803e3d6000fd5b505050506040513d601f19601f8201168201806040525081019061024d91906108ee565b101561028e576040517f08c379a0000000000000000000000000000000000000000000000000000000008152600401610285906109e4565b60405180910390fd5b6102b9877f00000000000000000000000000000000000000000000000000000000000000008361043c565b7fdd970dd9b5bfe707922155b058a407655cb18288b807e2216442bca8ad83d6b5866040516102e89190610a5f565b60405180910390a17fdd970dd9b5bfe707922155b058a407655cb18288b807e2216442bca8ad83d6b58560405161031f9190610ad9565b60405180910390a17fdd970dd9b5bfe707922155b058a407655cb18288b807e2216442bca8ad83d6b5816040516103569190610b53565b60405180910390a1600191505095945050505050565b7f000000000000000000000000000000000000000000000000000000000000000081565b7f000000000000000000000000000000000000000000000000000000000000000073ffffffffffffffffffffffffffffffffffffffff166342b0b77c30848460006040518563ffffffff1660e01b81526004016103f09493929190610c27565b600060405180830381600087803b15801561040a57600080fd5b505af115801561041e573d6000803e3d6000fd5b505050505050565b600081836104349190610cae565b905092915050565b8273ffffffffffffffffffffffffffffffffffffffff1663095ea7b383836040518363ffffffff1660e01b8152600401610477929190610d04565b6020604051808303816000875af1158015610496573d6000803e3d6000fd5b505050506040513d601f19601f820116820180604052508101906104ba9190610d59565b6104f9576040517f08c379a00000000000000000000000000000000000000000000000000000000081526004016104f090610dd2565b60405180910390fd5b505050565b600073ffffffffffffffffffffffffffffffffffffffff82169050919050565b6000819050919050565b600061054361053e610539846104fe565b61051e565b6104fe565b9050919050565b600061055582610528565b9050919050565b60006105678261054a565b9050919050565b6105778161055c565b82525050565b6000602082019050610592600083018461056e565b92915050565b6000604051905090565b600080fd5b600080fd5b60006105b7826104fe565b9050919050565b6105c7816105ac565b81146105d257600080fd5b50565b6000813590506105e4816105be565b92915050565b6000819050919050565b6105fd816105ea565b811461060857600080fd5b50565b60008135905061061a816105f4565b92915050565b600080fd5b600080fd5b6000601f19601f8301169050919050565b7f4e487b7100000000000000000000000000000000000000000000000000000000600052604160045260246000fd5b6106738261062a565b810181811067ffffffffffffffff821117156106925761069161063b565b5b80604052505050565b60006106a5610598565b90506106b1828261066a565b919050565b600067ffffffffffffffff8211156106d1576106d061063b565b5b6106da8261062a565b9050602081019050919050565b82818337600083830152505050565b6000610709610704846106b6565b61069b565b90508281526020810184848401111561072557610724610625565b5b6107308482856106e7565b509392505050565b600082601f83011261074d5761074c610620565b5b813561075d8482602086016106f6565b91505092915050565b600080600080600060a08688031215610782576107816105a2565b5b6000610790888289016105d5565b95505060206107a18882890161060b565b94505060406107b28882890161060b565b93505060606107c3888289016105d5565b925050608086013567ffffffffffffffff8111156107e4576107e36105a7565b5b6107f088828901610738565b9150509295509295909350565b60008115159050919050565b610812816107fd565b82525050565b600060208201905061082d6000830184610809565b92915050565b600061083e8261054a565b9050919050565b61084e81610833565b82525050565b60006020820190506108696000830184610845565b92915050565b60008060408385031215610886576108856105a2565b5b6000610894858286016105d5565b92505060206108a58582860161060b565b9150509250929050565b6108b8816105ac565b82525050565b60006020820190506108d360008301846108af565b92915050565b6000815190506108e8816105f4565b92915050565b600060208284031215610904576109036105a2565b5b6000610912848285016108d9565b91505092915050565b600082825260208201905092915050565b7f496e76616c69642062616c616e636520666f722074686520636f6e7472616374600082015250565b600061096260208361091b565b915061096d8261092c565b602082019050919050565b6000602082019050818103600083015261099181610955565b9050919050565b7f4e6f7420656e6f75676820616d6f756e7420746f2072657475726e206c6f616e600082015250565b60006109ce60208361091b565b91506109d982610998565b602082019050919050565b600060208201905081810360008301526109fd816109c1565b9050919050565b7f626f72726f77656420616d6f756e740000000000000000000000000000000000600082015250565b6000610a3a600f8361091b565b9150610a4582610a04565b602082019050919050565b610a59816105ea565b82525050565b60006040820190508181036000830152610a7881610a2d565b9050610a876020830184610a50565b92915050565b7f666c6173686c6f616e2066656500000000000000000000000000000000000000600082015250565b6000610ac3600d8361091b565b9150610ace82610a8d565b602082019050919050565b60006040820190508181036000830152610af281610ab6565b9050610b016020830184610a50565b92915050565b7f616d6f756e74546f52657475726e000000000000000000000000000000000000600082015250565b6000610b3d600e8361091b565b9150610b4882610b07565b602082019050919050565b60006040820190508181036000830152610b6c81610b30565b9050610b7b6020830184610a50565b92915050565b600082825260208201905092915050565b7f3078000000000000000000000000000000000000000000000000000000000000600082015250565b6000610bc8600283610b81565b9150610bd382610b92565b602082019050919050565b6000819050919050565b600061ffff82169050919050565b6000610c11610c0c610c0784610bde565b61051e565b610be8565b9050919050565b610c2181610bf6565b82525050565b600060a082019050610c3c60008301876108af565b610c4960208301866108af565b610c566040830185610a50565b8181036060830152610c6781610bbb565b9050610c766080830184610c18565b95945050505050565b7f4e487b7100000000000000000000000000000000000000000000000000000000600052601160045260246000fd5b6000610cb9826105ea565b9150610cc4836105ea565b9250827fffffffffffffffffffffffffffffffffffffffffffffffffffffffffffffffff03821115610cf957610cf8610c7f565b5b828201905092915050565b6000604082019050610d1960008301856108af565b610d266020830184610a50565b9392505050565b610d36816107fd565b8114610d4157600080fd5b50565b600081519050610d5381610d2d565b92915050565b600060208284031215610d6f57610d6e6105a2565b5b6000610d7d84828501610d44565b91505092915050565b7f617070726f7665206661696c6564000000000000000000000000000000000000600082015250565b6000610dbc600e8361091b565b9150610dc782610d86565b602082019050919050565b60006020820190508181036000830152610deb81610daf565b905091905056fea264697066735822122050a7f1612c1330fe875be616f280390a8519fdb1217c98b25c7f33cae63fe06e64736f6c634300080a0033",
  "immutableReferences": {
    "14": [
      {
        "length": 32,
        "start": 219
      }
    ],
    "18": [
      {
        "length": 32,
        "start": 660
      },
      {
        "length": 32,
        "start": 878
      },
      {
        "length": 32,
        "start": 914
      }
    ]
  },
  "source": "// SPDX-License-Identifier: MIT\npragma solidity ^0.8.10;\n\nimport \"@openzeppelin/contracts/token/ERC20/utils/SafeERC20.sol\";\nimport \"@openzeppelin/contracts/utils/math/SafeMath.sol\";\nimport \"@aave/core-v3/contracts/interfaces/IPool.sol\";\nimport \"@aave/core-v3/contracts/flashloan/base/FlashLoanSimpleReceiverBase.sol\";\n\ncontract AaveFlashloan is FlashLoanSimpleReceiverBase {\n    using SafeMath for uint256;\n    using SafeERC20 for IERC20;\n    event Log(string message, uint256 val);\n\n    constructor(IPoolAddressesProvider provider)\n        FlashLoanSimpleReceiverBase(provider)\n    {}\n\n    function aaveFlashloan(address loanToken, uint256 loanAmount) external {\n        IPool(address(POOL)).flashLoanSimple(\n            address(this),\n            loanToken,\n            loanAmount,\n            \"0x\",\n            0\n        );\n    }\n\n    function executeOperation(\n        address asset,\n        uint256 amount,\n        uint256 premium,\n        address, // initiator\n        bytes memory\n    ) public override returns (bool) {\n        require(\n            amount <= IERC20(asset).balanceOf(address(this)),\n            \"Invalid balance for the contract\"\n        );\n        // pay back the loan amount and the premium (flashloan fee)\n        uint256 amountToReturn = amount.add(premium);\n        require(\n            IERC20(asset).balanceOf(address(this)) >= amountToReturn,\n            \"Not enough amount to return loan\"\n        );\n\n        approvetoken(asset, address(POOL), amountToReturn);\n        emit Log(\"borrowed amount\", amount);\n        emit Log(\"flashloan fee\", premium);\n        emit Log(\"amountToReturn\", amountToReturn);\n\n        return true;\n    }\n\n    // we must approve asset such as USDC, USDT, DAI etc to be used by the pool contract\n    function approvetoken(\n       address token,\n       address to,\n       uint256 amountIn\n    ) internal {\n       require(IERC20(token).approve(to , amountIn),\"approve failed\");\n    }\n}",
  "sourcePath": "/workspaces/codespaces-jupyter/aave_flashloan/contracts/FlashLoanPolygon.sol",
  "compiler": {
    "name": "solc",
    "version": "0.8.10+commit.fc410830.Emscripten.clang"
  },
  "schemaVersion": "3.4.11",
  "updatedAt": "2022-12-15T16:40:42.883Z",
  "devdoc": {
    "kind": "dev",
    "methods": {},
    "version": 1
  },
  "userdoc": {
    "kind": "user",
    "methods": {},
    "version": 1
  }
}